:020000040800F2
:1000000000280020111D0008111B0008171B000804
:100010001D1B0008231B0008291B0008000000000E
:100020000000000000000000000000002F1B00087E
:100030003B1B000800000000471B0008531B000882
:10004000591D0008591D0008591D0008591D0008B8
:10005000591D0008591D0008591D0008591D0008A8
:10006000591D0008591D0008591D0008591D000898
:10007000591D0008591D0008591D0008591D000888
:10008000591D0008591D0008591D0008591D000878
:10009000591D0008591D0008591D0008591D000868
:1000A000591D0008591D0008591D0008591D000858
:1000B000611B0008591D000800000000591D0008C0
:1000C000591D00080000000000000000591D000834
:1000D00000000000591D0008591D00080000000024
:1000E000591D0008591D0008591D00080000000096
:1000F0000000000000000000000000000000000000
:0C01000000000000000000005FF808F1A3
:10010C0010B5054C237833B9044B13B10448AFF345
:10011C0000800123237010BD580000200000000057
:10012C005833000808B5034B1BB103490348AFF320
:10013C00008008BD000000005C000020583300085F
:10014C0080B400AF064B1B68012B04D1044B00227A
:10015C001A60012300E000231846BD4680BC70479E
:10016C007400002080B400AF064B1B68012B04D137
:10017C00044B00221A60012300E000231846BD4600
:10018C0080BC70477800002080B400AF064B1B6821
:10019C00012B04D1044B00221A60012300E0002340
:1001AC001846BD4680BC70477C00002080B400AF70
:1001BC00034B01221A6000BFBD4680BC704700BFD4
:1001CC007400002080B400AF034B01221A6000BF02
:1001DC00BD4680BC704700BF7800002080B400AFE3
:1001EC00034B01221A6000BFBD4680BC704700BFA4
:1001FC007C00002080B500AF1F4B1B681F4A1360AA
:10020C001F4B1B681C4A13604FF400511D4802F031
:10021C0089F803461A461A4B1A60184B1A68164B83
:10022C001B689A4225D1144B1A68154B1B689A42CD
:10023C001FD1154B1A68124B1B689A420DD0104BEC
:10024C001B68114A13600E4B1B68002B11D1FFF772
:10025C00ADFF0E4BC8221A600BE00C4B1B68013B28
:10026C000A4A1360094B1B68002B02D1064B012272
:10027C001A6000BF80BD00BF0400002000000020F9
:10028C0008000020000801400C0000203000002075
:10029C0080B500AF1F4B1B681F4A13601F4B1B68B8
:1002AC001C4A13604FF480411D4802F03BF8034692
:1002BC001A461A4B1A60184B1A68164B1B689A424E
:1002CC0025D1144B1A68154B1B689A421FD1154B3C
:1002DC001A68124B1B689A420DD0104B1B68114ABE
:1002EC0013600E4B1B68002B11D1FFF76BFF0E4BED
:1002FC00C8221A600BE00C4B1B68013B0A4A1360C6
:10030C00094B1B68002B02D1064B01221A6000BF5F
:10031C0080BD00BF14000020100000201800002039
:10032C00000801401C0000203400002080B500AF04
:10033C001F4B1B681F4A13601F4B1B681C4A136022
:10034C004FF400411D4801F0EDFF03461A461A4BCD
:10035C001A60184B1A68164B1B689A4225D1144B1D
:10036C001A68154B1B689A421FD1154B1A68124B11
:10037C001B689A420DD0104B1B68114A13600E4B30
:10038C001B68002B11D1FFF729FF0E4BC8221A60F6
:10039C000BE00C4B1B68013B0A4A1360094B1B68B2
:1003AC00002B02D1064B01221A6000BF80BD00BF9A
:1003BC00240000202000002028000020000801401C
:1003CC002C0000203800002080B500AF9D4B1B682E
:1003DC00013B042B00F2618201A252F823F000BF12
:1003EC0001040008410400084705000895060008B0
:1003FC009B07000801F0BEFB934B1B68934A1360EC
:10040C00934B1B68934A1360934B1B68934A13607E
:10041C008F4B1B68924A13608A4B02221A6040F67B
:10042C00B83001F083FA142001F09CFA142001F08A
:10043C00B5FA3BE201F0C6FB8A4B1B68012B13D1CA
:10044C00814B1A68884B1B681344884A13607E4B97
:10045C001B68874A13607C4B1B68013B7A4A13600C
:10046C004FF47A7001F07EFA824B1B68012B0CD191
:10047C007E4B1B68184601F09BF87D4B1B68184699
:10048C0001F0E6F8FA2001F089FA7B4B1B68012B8E
:10049C000FD1704B1B68744A13606A4B03221A60AD
:1004AC006C4B1B684FF47A7202FB03F3184601F095
:1004BC003DFAFFF745FE0346012B06D1614B0C229A
:1004CC001A6041F2883001F031FAFFF75DFE034605
:1004DC00012B40F0E4815C4B03221A60624B022238
:1004EC001A605D4B03221A60594B02221A60564B5C
:1004FC001B68564A1360564B1B68564A1360564B82
:10050C001B68564A1360524B1B68554A13604F4B7D
:10051C001A68504B1B681344584A13604F4B1A68A7
:10052C004F4B1B681344564A1360464B16221A60F5
:10053C0042F2107001F0FAF9B1E101F06BFB494B9A
:10054C001B68012B10D1484B1B68484A1360464B63
:10055C001B684C4A1360444B1B68013B424A1360B6
:10056C004FF47A7001F0FEF9424B1B68012B0CD151
:10057C003E4B1B68184601F01BF8424B1B68184693
:10058C0001F066F8FA2001F009FA3B4B1B68012BCD
:10059C0013D1324B1B68304A1360314B1B682C4A09
:1005AC001360284B04221A602C4B1B684FF47A7290
:1005BC0002FB03F3184601F0B9F9FFF7C1FD03463E
:1005CC00012B06D11F4B0D221A6041F2883001F02D
:1005DC00ADF9FFF7D9FD0346012B40F062811A4BB0
:1005EC0003221A60204B02221A601B4B03221A6052
:1005FC00174B02221A60144B1B68144A13601A4BD7
:10060C001B68144A1360144B1B68144A1360104B7C
:10061C001B68134A13600D4B1A680E4B1B6813446E
:10062C00164A13600D4B1A680D4B1B681344144A81
:10063C001360044B17221A6041F2883001F076F9EE
:10064C002FE100BF800000203C000020C0000020F3
:10065C0048000020A400002044000020B800002026
:10066C00B00000209800002040000020A8000020CE
:10067C00D0000020A000002090000020BC00002032
:10068C00CC000020C400002001F0ECFA884B1B6861
:10069C00012B13D1874B1A68874B1B681344874A6D
:1006AC001360844B1B68864A1360824B1B68013BAA
:1006BC00804A13604FF47A7001F054F9814B1B6837
:1006CC00012B0CD17E4B1B68184600F071FF7B4B45
:1006DC001B68184600F0BCFFFA2001F05FF97A4B5A
:1006EC001B68012B0FD1794B1B68734A1360784B35
:1006FC0005221A60754B1B684FF47A7202FB03F3E8
:10070C00184601F013F9FFF71BFD0346012B06D128
:10071C006F4B0E221A6041F2883001F007F9FFF797
:10072C0033FD0346012B40F0BE806A4B03221A6056
:10073C00694B02221A605F4B03221A605E4B022245
:10074C001A60644B1B68654A1360634B1B68644AF0
:10075C001360584B1B68634A1360574B1B685B4A0A
:10076C0013605E4B1A685E4B1B6813445E4A136041
:10077C005C4B1A68554B1B6813445C4A1360544B12
:10078C0018221A6041F2883001F0D0F88BE001F0A9
:10079C0091FA474B1B68012B10D1474B1B68474AFA
:1007AC001360454B1B68524A1360434B1B68013B5B
:1007BC00414A13604FF47A7001F0D4F8414B1B6836
:1007CC00012B0CD14A4B1B68184600F0F1FE3B4B39
:1007DC001B68184600F03CFFFA2001F0DFF83A4B9A
:1007EC001B68012B13D13D4B1B683A4A13603C4BE1
:1007FC001B68394A1360364B02221A60374B1B6850
:10080C004FF47A7202FB03F3184601F08FF8FFF7EE
:10081C0097FC0346012B06D12D4B0F221A6041F297
:10082C00883001F083F8FFF7AFFC0346012B3CD175
:10083C00284B03221A60284B02221A601D4B0322FC
:10084C001A601D4B02221A60224B1B68234A13604C
:10085C00214B1B68224A1360164B1B68214A1360FC
:10086C00154B1B68194A13601C4B1A681C4B1B68F0
:10087C0013441D4A13601B4B1A68144B1B6813441A
:10088C001A4A1360124B19221A6041F2883001F097
:10089C004DF8FA2001F082F807E000BF06E000BF37
:1008AC0004E000BF02E000BF00E000BF00BF80BD5D
:1008BC00980000204400002048000020C8000020C0
:1008CC00B4000020A000002090000020B000002008
:1008DC00800000203C00002040000020C0000020D0
:1008EC00A4000020B8000020BC000020CC00002098
:1008FC00AC00002080B500AF624B1B680C3B032B97
:10090C0000F2B58001A252F823F000BF29090008BB
:10091C007F090008D3090008270A000801F052F9E2
:10092C00594B1B68012B16D1584B1B68584A136046
:10093C00584B1B68584A1360524B02221A60534B97
:10094C001B684FF47A7202FB03F3184600F0EEFFBB
:10095C00642001F007F8FFF7F3FB0346012B40F08E
:10096C008880484B0D221A6041F2883000F0DEFF7F
:10097C007FE001F04FF9444B1B68012B16D1434B20
:10098C001B68434A1360434B1B68434A13603D4B3F
:10099C0003221A603F4B1B684FF47A7202FB03F37D
:1009AC00184600F0C3FF0A2000F0DCFFFFF7C8FB7D
:1009BC000346012B5FD1334B0E221A6041F2883073
:1009CC0000F0B4FF57E001F04DF92F4B1B68012BE1
:1009DC0016D1324B1B68324A1360324B1B68324AB9
:1009EC001360284B04221A602C4B1B684FF47A724C
:1009FC0002FB03F3184600F099FF0A2000F0B2FF47
:100A0C00FFF79EFB0346012B37D11E4B0F221A60BA
:100A1C0041F2883000F08AFF2FE001F04BF91A4BBD
:100A2C001B68012B16D11D4B1B681D4A13601D4BF7
:100A3C001B681D4A1360134B05221A60194B1B6867
:100A4C004FF47A7202FB03F3184600F06FFF0A2092
:100A5C0000F088FFFFF774FB0346012B0FD1094B05
:100A6C000C221A6041F2883000F060FF07E000BFF2
:100A7C0006E000BF04E000BF02E000BF00E000BFE2
:100A8C0000BF80BD8000002090000020C00000202E
:100A9C003C000020A400002040000020B8000020F2
:100AAC0044000020B00000204800002080B500AFBA
:100ABC007C4B1B68163B032B00F2F38101A252F80E
:100ACC0023F000BFE10A0008C90B0008E10C000884
:100ADC00C90D000801F076F8734B1B68012B0CD183
:100AEC00724B1B68184600F063FD714B1B6818466F
:100AFC0000F0AEFDFA2000F051FF6E4B1B68012B8D
:100B0C000FD16D4B03221A606C4B02221A60654B9D
:100B1C0002221A6040F6B83000F008FF642000F0A2
:100B2C0021FFFFF70DFB0346012B06D15D4B17226E
:100B3C001A6042F2107000F0F9FEFFF713FB034647
:100B4C00012B15D15A4B1B680133594A1360584B72
:100B5C001A685B4B1B681344544A1360534B1B6855
:100B6C00184600F025FD524B1B68184600F070FD2E
:100B7C00FFF70AFB0346012B40F095814C4B1B6899
:100B8C004D4A13604E4B1B684C4A13604D4B1B680F
:100B9C004D4A13604D4B1B684D4A1360414B02226A
:100BAC001A60434B1B684FF47A7202FB03F318462E
:100BBC0000F0BCFE642000F0D5FE74E101F02AF8D0
:100BCC00394B1B68012B0CD1384B1B68184600F0B5
:100BDC00EFFC3B4B1B68184600F03AFDFA2000F086
:100BEC00DDFE344B1B68012B0FD1334B03221A60F3
:100BFC00324B02221A602B4B03221A604FF4FA601C
:100C0C0000F094FE642000F0ADFEFFF799FA034665
:100C1C00012B06D1234B18221A6042F2107000F0FF
:100C2C0085FEFFF79FFA0346012B15D1244B1B6859
:100C3C000133234A13601E4B1A68214B1B68134463
:100C4C001A4A1360194B1B68184600F0B1FC1C4B78
:100C5C001B68184600F0FCFCFFF796FA0346012BC4
:100C6C0040F02381124B1B68134A1360144B1B6812
:100C7C00124A1360134B1B68134A1360134B1B6807
:100C8C00134A1360074B03221A600D4B1B684FF479
:100C9C007A7202FB03F3184600F048FE642000F061
:100CAC0061FE02E180000020A0000020BC000020BA
:100CBC00C0000020900000203C00002040000020DC
:100CCC00A4000020B800002044000020B000002048
:100CDC004800002000F0C6FF774B1B68012B0CD19D
:100CEC00764B1B68184600F063FC754B1B68184666
:100CFC0000F0AEFCFA2000F051FE724B1B68012B89
:100D0C000FD1714B03221A60704B02221A60704B88
:100D1C0004221A6040F6B83000F008FE642000F09F
:100D2C0021FEFFF70DFA0346012B06D1684B192261
:100D3C001A6042F2107000F0F9FDFFF713FA034647
:100D4C00012B15D15D4B1B6801335C4A13605B4B67
:100D5C001A68604B1B681344594A1360574B1B6845
:100D6C00184600F025FC564B1B68184600F070FC2A
:100D7C00FFF70AFA0346012B40F09980564B1B688B
:100D8C00514A1360554B1B68504A13604B4B1B6800
:100D9C00534A13604F4B1B68524A13604C4B04224E
:100DAC001A60464B1B684FF47A7202FB03F3184629
:100DBC0000F0BCFD642000F0D5FD78E000F07AFF77
:100DCC003D4B1B68012B0CD1424B1B68184600F0A5
:100DDC00EFFB3B4B1B68184600F03AFCFA2000F086
:100DEC00DDFD384B1B68012B0FD1374B03221A60EA
:100DFC00364B02221A60364B05221A6040F6B83088
:100E0C0000F094FD642000F0ADFDFFF799F9034666
:100E1C00012B06D12E4B16221A6042F2107000F0F4
:100E2C0085FDFFF79FF90346012B15D1294B1B6854
:100E3C000133284A1360214B1A68264B1B68134454
:100E4C001F4A1360234B1B68184600F0B1FB1C4B68
:100E5C001B68184600F0FCFBFFF796F90346012BC4
:100E6C0027D11D4B1B68184A13601C4B1B68174A73
:100E7C001360124B1B681A4A1360164B1B68194AF5
:100E8C001360134B04221A60124B1B684FF47A72D6
:100E9C0002FB03F3184600F049FD642000F062FDEC
:100EAC0007E000BF06E000BF04E000BF02E000BFA7
:100EBC0000E000BF00BF80BDA0000020B8000020F3
:100ECC00CC000020900000203C00002040000020BE
:100EDC0080000020B0000020C0000020A4000020F2
:100EEC00440000204800002080B582B000AF78603C
:100EFC007B68002BC0F284817B68092B00F2828115
:100F0C0001A252F823F000BF3D0F0008850F000826
:100F1C00CD0F0008151000085D100008A510000882
:100F2C00ED100008351100087D110008C5110008EE
:100F3C0000220121B54801F00CFA00220221B3482D
:100F4C0001F007FA00220421B04801F002FA002255
:100F5C000821AE4801F0FDF900221021AB4801F048
:100F6C00F8F900222021A94801F0F3F901224021CF
:100F7C00A64801F0EEF946E101220121A34801F057
:100F8C00E8F900220221A14801F0E3F90022042132
:100F9C009E4801F0DEF9012208219C4801F0D9F9A4
:100FAC0001221021994801F0D4F9012220219748FF
:100FBC0001F0CFF901224021944801F0CAF922E155
:100FCC0000220121914801F0C4F9002202218F482E
:100FDC0001F0BFF9012204218C4801F0BAF900227A
:100FEC0008218A4801F0B5F900221021874801F048
:100FFC00B0F901222021854801F0ABF900224021F3
:10100C00824801F0A6F9FEE0002201217F4801F0A0
:10101C00A0F9002202217D4801F09BF90022042155
:10102C007A4801F096F900220821784801F091F9EC
:10103C0001221021754801F08CF9012220217348FE
:10104C0001F087F900224021704801F082F9DAE0C2
:10105C00012201216D4801F07CF9002202216B482C
:10106C0001F077F900220421684801F072F901229D
:10107C000821664801F06DF901221021634801F046
:10108C0068F900222021614801F063F90022402117
:10109C005E4801F05EF9B6E0002201215B4801F0E8
:1010AC0058F901220221594801F053F90022042178
:1010BC00564801F04EF900220821544801F049F934
:1010CC0001221021514801F044F9002220214F48FF
:1010DC0001F03FF9002240214C4801F03AF992E02E
:1010EC0000220121494801F034F90122022147482C
:1010FC0001F02FF900220421444801F02AF90022C2
:10110C000821424801F025F9002210213F4801F046
:10111C0020F9002220213D4801F01BF9002240213A
:10112C003A4801F016F96EE000220121374801F02F
:10113C0010F900220221354801F00BF9002204219C
:10114C00324801F006F901220821304801F001F97A
:10115C00012210212D4801F0FCF8012220212B48FE
:10116C0001F0F7F801224021284801F0F2F84AE09A
:10117C0000220121254801F0ECF80022022123482D
:10118C0001F0E7F800220421204801F0E2F80022E7
:10119C0008211E4801F0DDF8002210211B4801F047
:1011AC00D8F800222021194801F0D3F80022402160
:1011BC00164801F0CEF826E000220121134801F078
:1011CC00C8F800220221114801F0C3F800220421C2
:1011DC000E4801F0BEF8002208210C4801F0B9F8C5
:1011EC0001221021094801F0B4F8002220210748FF
:1011FC0001F0AFF800224021044801F0AAF802E007
:10120C0000BF00E000BF0837BD4680BD000C0140A8
:10121C0080B582B000AF78607B68002BC0F2C081D3
:10122C007B68092B00F2BE8101A252F823F000BFAB
:10123C0065120008B91200080D13000861130008AC
:10124C00B5130008091400085D140008B114000857
:10125C00051500085915000800228021D34801F01B
:10126C0078F800224FF48071D04801F072F8002217
:10127C004FF40071CD4801F06CF800224FF48061FE
:10128C00CA4801F066F800224FF40061C74801F02B
:10129C0060F800224FF48051C44801F05AF8012242
:1012AC004FF40051C14801F054F87CE10122802137
:1012BC00BE4801F04EF800224FF48071BB4801F09B
:1012CC0048F800224FF40071B84801F042F80122AE
:1012DC004FF48061B54801F03CF801224FF40061F5
:1012EC00B24801F036F801224FF48051AF4801F0BA
:1012FC0030F801224FF40051AC4801F02AF852E1C9
:10130C0000228021A94801F024F800224FF48071BA
:10131C00A64801F01EF801224FF40071A34801F019
:10132C0018F800224FF48061A04801F012F8002256
:10133C004FF400619D4801F00CF801224FF48051EC
:10134C009A4801F006F800224FF40051974801F03A
:10135C0000F828E100228021944800F0FAFF0022D6
:10136C004FF48071914800F0F4FF00224FF40071AB
:10137C008E4800F0EEFF00224FF480618B4800F0A5
:10138C00E8FF01224FF40061884800F0E2FF0122DF
:10139C004FF48051854800F0DCFF00224FF40051DF
:1013AC00824800F0D6FFFEE0012280217F4800F049
:1013BC00D0FF00224FF480717C4800F0CAFF00225D
:1013CC004FF40071794800F0C4FF01224FF48061A2
:1013DC00764800F0BEFF01224FF40061734800F024
:1013EC00B8FF00224FF48051704800F0B2FF002289
:1013FC004FF400516D4800F0ACFFD4E00022802186
:10140C006A4800F0A6FF01224FF48071674800F093
:10141C00A0FF00224FF40071644800F09AFF0022F4
:10142C004FF48061614800F094FF01224FF4006199
:10143C005E4800F08EFF00224FF480515B4800F0B4
:10144C0088FF00224FF40051584800F082FFAAE0B8
:10145C0000228021554800F07CFF01224FF480715E
:10146C00524800F076FF00224FF400714F4800F014
:10147C0070FF00224FF480614C4800F06AFF00229C
:10148C004FF40061494800F064FF00224FF4805192
:10149C00464800F05EFF00224FF40051434800F034
:1014AC0058FF80E000228021404800F052FF0022CB
:1014BC004FF480713D4800F04CFF00224FF4007156
:1014CC003A4800F046FF01224FF48061374800F0A3
:1014DC0040FF01224FF40061344800F03AFF012232
:1014EC004FF48051314800F034FF01224FF4005189
:1014FC002E4800F02EFF56E0002280212B4800F0F1
:10150C0028FF00224FF48071284800F022FF0022AF
:10151C004FF40071254800F01CFF00224FF480614D
:10152C00224800F016FF00224FF400611F4800F023
:10153C0010FF00224FF480511C4800F00AFF0022DB
:10154C004FF40051194800F004FF2CE000228021D8
:10155C00164800F0FEFE00224FF48071134800F094
:10156C00F8FE00224FF40071104800F0F2FE002249
:10157C004FF480610D4800F0ECFE01224FF4006145
:10158C000A4800F0E6FE00224FF48051074800F0B4
:10159C00E0FE00224FF40051044800F0DAFE02E0B5
:1015AC0000BF00E000BF0837BD4680BD000C014005
:1015BC0080B584B000AF78607B68224A82FB03124E
:1015CC009210DB17D31AFB607A681E4B83FB021355
:1015DC009910D317C91A0B469B000B445B00D31A06
:1015EC00BB60194B1B68002B02D0012B13D025E0DC
:1015FC0000224FF40061154800F0ABFE01224FF4BD
:10160C008051124800F0A5FEF868FFF76DFC0E4BF8
:10161C0001221A6012E001224FF400610B4800F025
:10162C0098FE00224FF48051084800F092FEB868F2
:10163C00FFF75AFC044B00221A6000BF00BF1037A2
:10164C00BD4680BD676666668400002000080140C8
:10165C0080B584B000AF78607B68224A82FB0312AD
:10166C009210DB17D31AFB607A681E4B83FB0213B4
:10167C009910D317C91A0B469B000B445B00D31A65
:10168C00BB60194B1B68002B02D0012B13D025E03B
:10169C0000224FF40061154800F05BFE01224FF46C
:1016AC008051124800F055FEF868FFF7B1FD0E4B63
:1016BC0001221A6012E001224FF400610B4800F085
:1016CC0048FE00224FF48051084800F042FEB868F2
:1016DC00FFF79EFD044B00221A6000BF00BF1037BD
:1016EC00BD4680BD67666666880000200008014024
:1016FC0080B500AF00F02CFB00F016F800F09CF861
:10170C0000F04EF8064801F069FA064B01221A6007
:10171C00FEF75AFEFFF7EEF8FFF7C8F9F8E700BF3F
:10172C00D40000208000002080B590B000AF07F1FD
:10173C00180328220021184601F000FE3B1D002250
:10174C001A605A609A60DA601A610223BB61012345
:10175C00BB621023FB6200237B6307F1180318465E
:10176C0000F010FE0346002B01D000F0D9F80F2337
:10177C007B600023BB600023FB6000233B610023E4
:10178C007B613B1D0021184601F07CF80346002BC1
:10179C0001D000F0C5F800BF4037BD4680BD000049
:1017AC0080B586B000AF07F1080300221A605A60BA
:1017BC009A60DA603B4600221A605A601D4B4FF06B
:1017CC0080421A601B4B41F63F725A60194B002243
:1017DC009A60184B0922DA60164B00221A61154BDD
:1017EC0000229A61134801F0A9F90346002B01D09D
:1017FC0000F096F84FF48053BB6007F108031946CC
:10180C000C4801F027FB0346002B01D000F088F8B0
:10181C0000233B6000237B603B461946054801F0E2
:10182C00FFFC0346002B01D000F07AF800BF1837FC
:10183C00BD4680BDD400002080B586B000AF07F156
:10184C00080300221A605A609A60DA60294B9B697F
:10185C00284A43F004039361264B9B6903F004036D
:10186C007B607B68234B9B69224A43F0080393619E
:10187C00204B9B6903F008033B603B6800224FF44C
:10188C00FF511D4800F065FD002243F6FF711B4817
:10189C0000F05FFD4FF4FF53BB600123FB6000239E
:1018AC003B6102237B6107F108031946124800F0E3
:1018BC00BFFB43F6FF73BB600123FB6000233B615E
:1018CC0002237B6107F1080319460C4800F0B0FBBA
:1018DC004FF46043BB600023FB6001233B6107F1C5
:1018EC0008031946044800F0A3FB00BF1837BD4697
:1018FC0080BD00BF0010024000080140000C0140F8
:10190C0080B582B000AF786000F064F8FEF772FC2E
:10191C00FEF7BEFCFEF70AFD00BF0837BD4680BDD2
:10192C0080B400AF72B600BFFEE7000080B483B095
:10193C0000AF78607B68084A82FB03129210DB17B9
:10194C00D31A064A1360064B00221A6000BF0C37EC
:10195C00BD4680BC704700BF676666668C00002081
:10196C009000002080B483B000AF78607B68084A98
:10197C0082FB03129210DB17D31A064A1360064B34
:10198C0000221A6000BF0C37BD4680BC704700BFF8
:10199C0067666666940000209800002080B483B0CF
:1019AC0000AF78607B68084A82FB03129210DB1749
:1019BC00D31A064A1360064B00221A6000BF0C377C
:1019CC00BD4680BC704700BF676666669C00002001
:1019DC00A000002080B400AF194B1B68002B0BDD5E
:1019EC00174B1B68013B164A1360154B1B68002BE9
:1019FC0002DC144B01221A60134B1B68002B0BDD0D
:101A0C00114B1B68013B104A13600F4B1B68002BDA
:101A1C0002DC0E4B01221A600D4B1B68002B0BDDF8
:101A2C000B4B1B68013B0A4A1360094B1B68002BCC
:101A3C0002DC084B01221A6000BFBD4680BC704717
:101A4C008C000020900000209400002098000020C2
:101A5C009C000020A000002080B485B000AF154B86
:101A6C009B69144A43F001039361124B9B6903F089
:101A7C000103BB60BB680F4BDB690E4A43F080531C
:101A8C00D3610C4BDB6903F080537B607B680A4BA2
:101A9C005B68FB60FB6823F0E063FB60FB6843F072
:101AAC008063FB60044AFB68536000BF1437BD467B
:101ABC0080BC7047001002400000014080B584B02B
:101ACC0000AF78607B681B68B3F1804F13D10C4B6F
:101ADC00DB690B4A43F00103D361094BDB6903F06B
:101AEC000103FB60FB68002200211C2000F069FA56
:101AFC001C2000F082FA00BF1037BD4680BD00BF2D
:101B0C000010024080B400AFFEE780B400AFFEE7E7
:101B1C0080B400AFFEE780B400AFFEE780B400AF46
:101B2C00FEE780B400AF00BFBD4680BC704780B4F8
:101B3C0000AF00BFBD4680BC704780B400AF00BF93
:101B4C00BD4680BC704780B500AF00F047F900BFC0
:101B5C0080BD000080B500AF024801F08BF800BFDB
:101B6C0080BD00BFD400002080B400AF00BFBD46D4
:101B7C0080BC704780B500AF00222021104800F0D7
:101B8C00E8FB002280210E4800F0E3FB00224021FC
:101B9C000B4800F0DEFB00224FF48071084800F087
:101BAC00D8FB00224FF48061054800F0D2FB0022E4
:101BBC004FF40071024800F0CCFB00BF80BD00BFA9
:101BCC000008014080B500AF01222021104800F030
:101BDC00C0FB002280210E4800F0BBFB00224021FC
:101BEC000B4800F0B6FB00224FF48071084800F05F
:101BFC00B0FB01224FF48061054800F0AAFB0022E3
:101C0C004FF40071024800F0A4FB00BF80BD00BF80
:101C1C000008014080B500AF01222021104800F0DF
:101C2C0098FB002280210E4800F093FB00224021FB
:101C3C000B4800F08EFB00224FF48071084800F036
:101C4C0088FB00224FF48061054800F082FB0122E2
:101C5C004FF40071024800F07CFB00BF80BD00BF58
:101C6C000008014080B500AF00222021104800F090
:101C7C0070FB012280210E4800F06BFB00224021FA
:101C8C000B4800F066FB01224FF48071084800F00D
:101C9C0060FB00224FF48061054800F05AFB0022E3
:101CAC004FF40071024800F054FB00BF80BD00BF30
:101CBC000008014080B500AF00222021104800F040
:101CCC0048FB002280210E4800F043FB01224021FA
:101CDC000B4800F03EFB01224FF48071084800F0E5
:101CEC0038FB00224FF48061054800F032FB0022E3
:101CFC004FF40071024800F02CFB00BF80BD00BF08
:101D0C0000080140FFF730FF0B480C490C4A002338
:101D1C0002E0D458C4500433C4188C42F9D3094A95
:101D2C00094C002301E013600432A242FBD301F002
:101D3C00E1FAFFF7DDFC704700000020580000209E
:101D4C009C3300085800002020010020FEE7000012
:101D5C0080B500AF084B1B68074A43F010031360B3
:101D6C00032000F023F90F2000F008F8FFF774FEB1
:101D7C000023184680BD00BF0020024080B582B011
:101D8C0000AF7860124B1A68124B1B7819464FF44F
:101D9C007A73B3FBF1F3B2FBF3F3184600F03BF9A3
:101DAC000346002B01D001230EE07B680F2B0AD8D1
:101DBC00002279684FF0FF3000F003F9064A7B6887
:101DCC001360002300E0012318460837BD4680BD90
:101DDC004C000020540000205000002080B400AFC4
:101DEC00054B1B781A46054B1B681344034A1360BA
:101DFC0000BFBD4680BC7047540000201C01002071
:101E0C0080B400AF024B1B681846BD4680BC7047BF
:101E1C001C01002080B485B000AF78607B6803F0B3
:101E2C000703FB600C4BDB68BB60BA684FF6FF0323
:101E3C001340BB60FB681A02BB68134343F0BF63DB
:101E4C0043F40033BB60044ABB68D36000BF143753
:101E5C00BD4680BC704700BF00ED00E080B400AF11
:101E6C00044BDB681B0A03F007031846BD4680BC15
:101E7C00704700BF00ED00E080B483B000AF0346B4
:101E8C00FB7197F90730002B0BDBFB7903F01F027A
:101E9C00064997F907305B09012000FA02F241F874
:101EAC00232000BF0C37BD4680BC704700E100E02A
:101EBC0080B483B000AF03463960FB7197F90730EB
:101ECC00002B0ADB3B68DAB20C4997F90730120198
:101EDC00D2B20B4483F800230AE03B68DAB208491B
:101EEC00FB7903F00F03043B1201D2B20B441A76B8
:101EFC0000BF0C37BD4680BC704700BF00E100E05E
:101F0C0000ED00E080B489B000AFF860B9607A6091
:101F1C00FB6803F00703FB61FB69C3F10703042BA8
:101F2C0028BF0423BB61FB690433062B02D9FB6970
:101F3C00033B00E000237B614FF0FF32BB6902FAE8
:101F4C0003F3DA43BB681A407B699A404FF0FF31C8
:101F5C007B6901FA03F3D9437B680B4013431846A2
:101F6C002437BD4680BC704780B582B000AF786026
:101F7C007B68013BB3F1807F01D301230FE00A4A58
:101F8C007B68013B53600F214FF0FF30FFF790FF50
:101F9C00054B00229A60044B07221A600023184656
:101FAC000837BD4680BD00BF10E000E080B582B0B0
:101FBC0000AF78607868FFF72DFF00BF0837BD468B
:101FCC0080BD80B586B000AF0346B9607A60FB7304
:101FDC0000237B61FFF742FF78617A68B968786902
:101FEC00FFF790FF024697F90F3011461846FFF79E
:101FFC005FFF00BF1837BD4680BD80B582B000AF13
:10200C000346FB7197F907301846FFF735FF00BF01
:10201C000837BD4680BD80B582B000AF7860786867
:10202C00FFF7A2FF034618460837BD4680BD0000E7
:10203C0080B48BB000AF7860396000237B620023E2
:10204C003B6248E101227B6A02FA03F3FB613B68C5
:10205C001B68FA691340BB61BA69FB699A4240F08C
:10206C0037813B685B68A34A93425ED0A14A934296
:10207C0075D8A14A934258D09F4A93426FD89F4A31
:10208C00934252D09D4A934269D89D4A93424CD078
:10209C009B4A934263D89B4A934246D0994A9342B7
:1020AC005DD8122B2AD8122B59D801A252F823F042
:1020BC0037210008112100082321000865210008A0
:1020CC006B2100086B2100086B2100086B210008B4
:1020DC006B2100086B2100086B2100086B210008A4
:1020EC006B2100086B2100086B2100086B21000894
:1020FC006B210008192100082D210008824A934207
:10210C0013D02CE03B68DB683B6229E03B68DB6862
:10211C0004333B6224E03B68DB6808333B621FE01E
:10212C003B68DB680C333B621AE03B689B68002B16
:10213C0002D104233B6213E03B689B68012B05D161
:10214C0008233B627B68FA691A6109E008233B6249
:10215C007B68FA695A6103E000233B6200E000BF30
:10216C00BB69FF2B01D87B6801E07B6804337B6182
:10217C00BB69FF2B02D87B6A9B0002E07B6A083BA1
:10218C009B003B617B691A680F213B6901FA03F3E1
:10219C00DB431A40396A3B6901FA03F31A437B6942
:1021AC001A603B685B6803F08053002B00F0908052
:1021BC00564B9B69554A43F001039361534B9B6902
:1021CC0003F00103BB60BB68514A7B6A9B08023376
:1021DC0052F82330FB607B6A03F003039B000F2251
:1021EC0002FA03F3DB43FA681340FB607B68494A4D
:1021FC0093420DD07B68484A934207D07B68474A8C
:10220C00934201D1022304E0032302E0012300E006
:10221C0000237A6A02F0030292009340FA68134397
:10222C00FB603B497B6A9B080233FA6841F8232028
:10223C003B685B6803F48013002B06D0384B9A681C
:10224C003749BB6913438B6006E0354B9A68BB6911
:10225C00DB43334913408B603B685B6803F400132A
:10226C00002B06D02E4BDA682D49BB691343CB608B
:10227C0006E02B4BDA68BB69DB4329491340CB6082
:10228C003B685B6803F40033002B06D0244B5A6880
:10229C002349BB6913434B6006E0214B5A68BB6969
:1022AC00DB431F4913404B603B685B6803F480338E
:1022BC00002B06D01A4B1A681949BB6913430B60E3
:1022CC0006E0174B1A68BB69DB43154913400B60DA
:1022DC007B6A01337B623B681A687B6A22FA03F3E0
:1022EC00002B7FF4AFAE00BF00BF2C37BD4680BCC7
:1022FC00704700BF000032100000311000002210A7
:10230C0000002110000012100000111000100240FB
:10231C000000014000080140000C01400010014089
:10232C000004014080B485B000AF78600B467B8020
:10233C007B689A687B881340002B02D00123FB73C7
:10234C0001E00023FB73FB7B18461437BD4680BCB1
:10235C00704780B483B000AF78600B467B80134627
:10236C007B707B78002B03D07A887B681A6103E042
:10237C007B881A047B681A6100BF0C37BD4680BC91
:10238C007047000080B586B000AF78607B68002B8A
:10239C0001D101236CE27B681B6803F00103002B65
:1023AC0000F08780924B5B6803F00C03042B0CD07D
:1023BC008F4B5B6803F00C03082B12D18C4B5B68C2
:1023CC0003F48033B3F5803F0BD1894B1B6803F4C6
:1023DC000033002B6CD07B685B68002B68D1012329
:1023EC0046E27B685B68B3F5803F06D1804B1B6887
:1023FC007F4A43F4803313602EE07B685B68002BCC
:10240C000CD17B4B1B687A4A23F480331360784BD6
:10241C001B68774A23F4802313601DE07B685B689C
:10242C00B3F5A02F0CD1724B1B68714A43F4802377
:10243C0013606F4B1B686E4A43F4803313600BE0E0
:10244C006B4B1B686A4A23F480331360684B1B6820
:10245C00674A23F4802313607B685B68002B13D0DE
:10246C00FFF7CEFC386108E0FFF7CAFC02463B6977
:10247C00D31A642B01D90323FAE15D4B1B6803F4D7
:10248C000033002BF0D014E0FFF7BAFC386108E001
:10249C00FFF7B6FC02463B69D31A642B01D9032320
:1024AC00E6E1534B1B6803F40033002BF0D100E042
:1024BC0000BF7B681B6803F00203002B63D04C4BFE
:1024CC005B6803F00C03002B0BD0494B5B6803F0EB
:1024DC000C03082B1CD1464B5B6803F48033002B98
:1024EC0016D1434B1B6803F00203002B05D07B680D
:1024FC001B69012B01D00123BAE13D4B1B6823F072
:10250C00F8027B685B69DB00394913430B603AE0E6
:10251C007B681B69002B20D0364B01221A60FFF719
:10252C006FFC386108E0FFF76BFC02463B69D31A7D
:10253C00022B01D903239BE12D4B1B6803F00203F3
:10254C00002BF0D02A4B1B6823F0F8027B685B69E8
:10255C00DB00274913430B6015E0264B00221A6061
:10256C00FFF74EFC386108E0FFF74AFC02463B6976
:10257C00D31A022B01D903237AE11D4B1B6803F0FC
:10258C000203002BF0D17B681B6803F00803002BBF
:10259C003AD07B689B69002B19D0174B01221A602B
:1025AC00FFF72EFC386108E0FFF72AFC02463B6976
:1025BC00D31A022B01D903235AE10D4B5B6A03F0AA
:1025CC000203002BF0D0012000F09AFA1CE00A4B19
:1025DC0000221A60FFF714FC38610FE0FFF710FCC3
:1025EC0002463B69D31A022B08D9032340E100BFF2
:1025FC000010024000004242800442429E4B5B6A43
:10260C0003F00203002BE9D17B681B6803F0040381
:10261C00002B00F0A6800023FB75974BDB6903F0C1
:10262C008053002B0DD1944BDB69934A43F08053BC
:10263C00D361914BDB6903F08053BB60BB68012312
:10264C00FB758E4B1B6803F48073002B18D18B4BDE
:10265C001B688A4A43F480731360FFF7D1FB38611F
:10266C0008E0FFF7CDFB02463B69D31A642B01D976
:10267C000323FDE0814B1B6803F48073002BF0D027
:10268C007B68DB68012B06D17B4B1B6A7A4A43F0D3
:10269C00010313622DE07B68DB68002B0CD1764BB9
:1026AC001B6A754A23F001031362734B1B6A724A4F
:1026BC0023F0040313621CE07B68DB68052B0CD150
:1026CC006D4B1B6A6C4A43F0040313626A4B1B6A22
:1026DC00694A43F0010313620BE0674B1B6A664ABD
:1026EC0023F001031362644B1B6A634A23F0040357
:1026FC0013627B68DB68002B15D0FFF781FB386118
:10270C000AE0FFF77DFB02463B69D31A41F288329F
:10271C00934201D90323ABE0574B1B6A03F002032E
:10272C00002BEED014E0FFF76BFB38610AE0FFF7EB
:10273C0067FB02463B69D31A41F28832934201D9B6
:10274C00032395E04C4B1B6A03F00203002BEED1E4
:10275C00FB7D012B05D1484BDB69474A23F08053A5
:10276C00D3617B68DB69002B00F08180424B5B6896
:10277C0003F00C03082B61D07B68DB69022B46D17C
:10278C003F4B00221A60FFF73BFB386108E0FFF774
:10279C0037FB02463B69D31A022B01D9032367E0AE
:1027AC00354B1B6803F00073002BF0D17B681B6A60
:1027BC00B3F5803F08D1304B5B6823F400327B6863
:1027CC009B682D4913434B602B4B5B6823F47412AD
:1027DC007B68196A7B685B6A0B43274913434B6020
:1027EC00274B01221A60FFF70BFB386108E0FFF75B
:1027FC0007FB02463B69D31A022B01D9032337E0AE
:10280C001D4B1B6803F00073002BF0D02FE01C4B0A
:10281C0000221A60FFF7F4FA386108E0FFF7F0FACB
:10282C0002463B69D31A022B01D9032320E0124B39
:10283C001B6803F00073002BF0D118E07B68DB6998
:10284C00012B01D1012313E00B4B5B68FB60FB6890
:10285C0003F480327B681B6A9A4206D1FB6803F44E
:10286C0070127B685B6A9A4201D0012300E000235E
:10287C0018461837BD4680BD00100240007000405D
:10288C006000424280B584B000AF786039607B68EC
:10289C00002B01D10123D0E06A4B1B6803F0070326
:1028AC003A689A4210D9674B1B6823F007026549B6
:1028BC003B6813430B60634B1B6803F007033A68D8
:1028CC009A4201D00123B8E07B681B6803F0020335
:1028DC00002B20D07B681B6803F00403002B05D071
:1028EC00594B5B68584A43F4E06353607B681B6840
:1028FC0003F00803002B05D0534B5B68524A43F49A
:10290C0060535360504B5B6823F0F0027B689B680C
:10291C004D4913434B607B681B6803F00103002B8C
:10292C0040D07B685B68012B07D1474B1B6803F4D5
:10293C000033002B15D101237FE07B685B68022BF1
:10294C0007D1414B1B6803F00073002B09D1012305
:10295C0073E03D4B1B6803F00203002B01D10123F4
:10296C006BE0394B5B6823F003027B685B6836498C
:10297C0013434B60FFF744FAF8600AE0FFF740FAA4
:10298C000246FB68D31A41F28832934201D90323E1
:10299C0053E02D4B5B6803F00C027B685B689B007B
:1029AC009A42EBD1274B1B6803F007033A689A4213
:1029BC0010D2244B1B6823F0070222493B681343B7
:1029CC000B60204B1B6803F007033A689A4201D056
:1029DC00012332E07B681B6803F00403002B08D052
:1029EC00194B5B6823F4E0627B68DB681649134380
:1029FC004B607B681B6803F00803002B09D0124B5B
:102A0C005B6823F460527B681B69DB000E4913433F
:102A1C004B6000F021F802460B4B5B681B0903F07E
:102A2C000F030A49CB5C22FA03F3094A1360094BE2
:102A3C001B681846FFF7A2F9002318461037BD464D
:102A4C0080BD00BF0020024000100240703300081F
:102A5C004C0000205000002080B487B000AF002351
:102A6C00FB600023BB6000237B6100237B600023A1
:102A7C003B611E4B5B68FB60FB6803F00C03042B93
:102A8C0002D0082B03D027E0194B3B6127E0FB68F1
:102A9C009B0C03F00F03174AD35C7B60FB6803F4B9
:102AAC008033002B10D0114B5B685B0C03F00103DF
:102ABC00114AD35CBB607B680D4A02FB03F2BB6816
:102ACC00B2FBF3F37B6104E07B680C4A02FB03F37B
:102ADC007B617B693B6102E0054B3B6100BF3B695D
:102AEC0018461C37BD4680BC704700BF0010024022
:102AFC0000127A00803300089033000800093D0072
:102B0C0080B485B000AF78600A4B1B680A4AA2FB00
:102B1C0003235B0A7A6802FB03F3FB6000BFFB68CC
:102B2C005A1EFA60002BF9D100BF00BF1437BD4606
:102B3C0080BC70474C000020D34D621080B582B031
:102B4C0000AF78607B68002B01D1012341E07B68EA
:102B5C0093F83D30DBB2002B06D17B68002283F862
:102B6C003C207868FEF7AAFF7B68022283F83D20A0
:102B7C007B681A687B6804331946104600F056FAD5
:102B8C007B68012283F846207B68012283F83E2073
:102B9C007B68012283F83F207B68012283F8402068
:102BAC007B68012283F841207B68012283F8422054
:102BBC007B68012283F843207B68012283F8442040
:102BCC007B68012283F845207B68012283F83D2035
:102BDC00002318460837BD4680BD000080B485B080
:102BEC0000AF78607B6893F83D30DBB2012B01D0ED
:102BFC00012335E07B68022283F83D207B681B684B
:102C0C00DA687B681B6842F00102DA607B681B683B
:102C1C00164A934209D07B681B68B3F1804F04D0ED
:102C2C007B681B68124A934211D17B681B689B68B6
:102C3C0003F00703FB60FB68062B10D07B681B6856
:102C4C001A687B681B6842F001021A6007E07B6817
:102C5C001B681A687B681B6842F001021A6000232B
:102C6C0018461437BD4680BC704700BF002C01408D
:102C7C000004004080B584B000AF78607B681B68AE
:102C8C00DB68FB607B681B681B69BB60BB6803F07F
:102C9C000203002B20D0FB6803F00203002B1BD097
:102CAC007B681B686FF002021A617B6801221A773D
:102CBC007B681B689B6903F00303002B03D07868C7
:102CCC0000F098F905E0786800F08BF9786800F06E
:102CDC009AF97B6800221A77BB6803F00403002B77
:102CEC0020D0FB6803F00403002B1BD07B681B680F
:102CFC006FF004021A617B6802221A777B681B68EA
:102D0C009B6903F44073002B03D0786800F072F9D0
:102D1C0005E0786800F065F9786800F074F97B6874
:102D2C0000221A77BB6803F00803002B20D0FB6845
:102D3C0003F00803002B1BD07B681B686FF00802A4
:102D4C001A617B6804221A777B681B68DB6903F0C5
:102D5C000303002B03D0786800F04CF905E0786889
:102D6C0000F03FF9786800F04EF97B6800221A7782
:102D7C00BB6803F01003002B20D0FB6803F010039A
:102D8C00002B1BD07B681B686FF010021A617B68EC
:102D9C0008221A777B681B68DB6903F44073002BED
:102DAC0003D0786800F026F905E0786800F019F98E
:102DBC00786800F028F97B6800221A77BB6803F06A
:102DCC000103002B0CD0FB6803F00103002B07D090
:102DDC007B681B686FF001021A617868FEF790FD42
:102DEC00BB6803F08003002B0CD0FB6803F080035E
:102DFC00002B07D07B681B686FF080021A61786823
:102E0C0000F06FFABB6803F04003002B0CD0FB689A
:102E1C0003F04003002B07D07B681B686FF0400267
:102E2C001A61786800F0F8F8BB6803F02003002BF7
:102E3C000CD0FB6803F02003002B07D07B681B68C9
:102E4C006FF020021A61786800F042FA00BF103768
:102E5C00BD4680BD80B584B000AF7860396000237A
:102E6C00FB737B6893F83C30012B01D10223B4E057
:102E7C007B68012283F83C207B68022283F83D208A
:102E8C007B681B689B68BB60BB6823F07703BB60E7
:102E9C00BB6823F47F43BB607B681B68BA689A608D
:102EAC003B681B68B3F5005F3ED0B3F5005F00F2E2
:102EBC008780B3F5805F00F08680B3F5805F7FD8A4
:102ECC00702B1AD0702B7BD8602B50D0602B77D8FE
:102EDC00502B3CD0502B73D8402B58D0402B6FD854
:102EEC00302B64D0302B6BD8202B60D0202B67D8A4
:102EFC00002B5CD0102B5AD062E07B6818683B68C2
:102F0C0099683B685A683B68DB6800F06AF97B6833
:102F1C001B689B68BB60BB6843F07703BB607B6836
:102F2C001B68BA689A604FE07B6818683B689968C0
:102F3C003B685A683B68DB6800F053F97B681B6898
:102F4C009A687B681B6842F480429A603CE07B681C
:102F5C0018683B6859683B68DB681A4600F0CAF889
:102F6C007B681B685021184600F021F92CE07B6827
:102F7C0018683B6859683B68DB681A4600F0E8F84B
:102F8C007B681B686021184600F011F91CE07B6817
:102F9C0018683B6859683B68DB681A4600F0AAF869
:102FAC007B681B684021184600F001F90CE07B6837
:102FBC001A683B681B681946104600F0F8F803E0E5
:102FCC000123FB7300E000BF7B68012283F83D20E6
:102FDC007B68002283F83C20FB7B18461037BD46EB
:102FEC0080BD80B483B000AF786000BF0C37BD46A5
:102FFC0080BC704780B483B000AF786000BF0C37E2
:10300C00BD4680BC704780B483B000AF786000BF11
:10301C000C37BD4680BC704780B483B000AF78607D
:10302C0000BF0C37BD4680BC7047000080B485B033
:10303C0000AF786039607B681B68FB607B682B4A4B
:10304C00934207D07B68B3F1804F03D07B68284A4A
:10305C00934208D1FB6823F07003FB603B685B680C
:10306C00FA681343FB607B68204A934207D07B6865
:10307C00B3F1804F03D07B681D4A934208D1FB68A3
:10308C0023F44073FB603B68DB68FA681343FB6016
:10309C00FB6823F080023B685B691343FB607B6831
:1030AC00FA681A603B689A687B68DA623B681A684F
:1030BC007B689A627B680D4A934203D13B681A691C
:1030CC007B681A637B6801225A617B681B6903F079
:1030DC000103002B05D07B681B6923F001027B6880
:1030EC001A6100BF1437BD4680BC7047002C0140EC
:1030FC000004004080B487B000AFF860B9607A601B
:10310C00FB681B6A7B61FB681B6A23F00102FB688E
:10311C001A62FB689B693B613B6923F0F0033B61DE
:10312C007B681B013A6913433B617B6923F00A03FB
:10313C007B617A69BB6813437B61FB683A699A616E
:10314C00FB687A691A6200BF1C37BD4680BC7047A9
:10315C0080B487B000AFF860B9607A60FB681B6A16
:10316C007B61FB681B6A23F01002FB681A62FB6828
:10317C009B693B613B6923F470433B617B681B0398
:10318C003A6913433B617B6923F0A0037B61BB6805
:10319C001B017A6913437B61FB683A699A61FB688E
:1031AC007A691A6200BF1C37BD4680BC704780B478
:1031BC0085B000AF786039607B689B68FB60FB680A
:1031CC0023F07003FB603A68FB68134343F007037A
:1031DC00FB607B68FA689A6000BF1437BD4680BC00
:1031EC00704780B487B000AFF860B9607A603B601C
:1031FC00FB689B687B617B6923F47F437B613B6845
:10320C001A027B681A43BB6813437A6913437B61C8
:10321C00FB687A699A6000BF1C37BD4680BC70475A
:10322C0080B485B000AF786039607B6893F83C302F
:10323C00012B01D1022341E07B68012283F83C2061
:10324C007B68022283F83D207B681B685B68FB600F
:10325C007B681B689B68BB60FB6823F07003FB609A
:10326C003B681B68FA681343FB607B681B68FA6851
:10327C005A607B681B68144A934209D07B681B68B0
:10328C00B3F1804F04D07B681B68104A93420CD179
:10329C00BB6823F08003BB603B685B68BA68134370
:1032AC00BB607B681B68BA689A607B68012283F8F4
:1032BC003D207B68002283F83C20002318461437FD
:1032CC00BD4680BC704700BF002C0140000400408C
:1032DC0080B483B000AF786000BF0C37BD4680BCB3
:1032EC00704780B483B000AF786000BF0C37BD4628
:1032FC0080BC704770B500260C4D0D4C641BA4109F
:10330C00A64209D100F022F800260A4D0A4C641B93
:10331C00A410A64205D170BD55F8043B9847013660
:10332C00EEE755F8043B98470136F2E79433000872
:10333C009433000894330008983300080346024481
:10334C00934200D1704703F8011BF9E7F8B500BFB1
:10335C00F8BC08BC9E467047F8B500BFF8BC08BC6A
:04336C009E467047C2
:103370000000000000000000010203040607080925
:1033800002030405060708090A0B0C0D0E0F1010A6
:043390000102000036
:0433940031010008FB
:043398000D0100081B
:10339C00010000000100000001000000010000001D
:1033AC00010000000100000001000000010000000D
:1033BC0001000000010000000100000001000000FD
:1033CC00C8000000C8000000C80000000300000096
:1033DC0002000000030000000200000000127A004E
:0833EC001000000001000000C8
:0400000508001D11C1
:00000001FF
